:100000000C945D000C9485000C9485000C94850084
:100010000C9485000C9485000C9485000C9485004C
:100020000C9485000C9485000C9485000C9485003C
:100030000C9485000C9485000C9485000C9485002C
:100040000C9403030C9485000C94D1020C94AB0225
:100050000C9485000C9485000C9485000C9485000C
:100060000C9485000C9485000000000024002700FB
:100070002A0000000000250028002B0004040404CE
:100080000404040402020202020203030303030342
:10009000010204081020408001020408102001021F
:1000A00004081020000000080002010000030407FB
:1000B0000000000000000000450411241FBECFEF27
:1000C000D8E0DEBFCDBF11E0A0E0B1E0E2E4F9E0AE
:1000D00002C005900D92A233B107D9F721E0A2E347
:1000E000B1E001C01D92A43EB207E1F710E0CDE5FA
:1000F000D0E004C02197FE010E949404CC35D107C2
:10010000C9F70E944D030C949F040C94000090E0EA
:10011000FC01EC55FF4F2491FC01E057FF4F349157
:10012000FC01E458FF4FE491EE23B9F1222339F1A9
:10013000233091F038F42130A9F0223001F584B554
:100140008F7D12C0273091F02830A1F02430B9F40F
:10015000809180008F7D03C0809180008F77809395
:1001600080000DC084B58F7784BD09C08091B00038
:100170008F7703C08091B0008F7D8093B000F0E056
:10018000EE0FFF1FEE58FF4FA591B4918FB7F89473
:10019000EC9130953E233C938FBF089590E0FC0195
:1001A000E057FF4F2491FC01E458FF4F84918823CE
:1001B00099F090E0880F991FFC01E859FF4FA59135
:1001C000B491FC01EE58FF4F859194918FB7F8944C
:1001D000EC91E22BEC938FBF0895CF92DF92EF92D8
:1001E000FF920F931F93CF93DF936C017A018B01E2
:1001F000C0E0D0E0CE15DF0589F0D8016D918D010A
:10020000D601ED91FC910190F081E02DC601099598
:10021000892B11F47E0102C02196ECCFC701DF913A
:10022000CF911F910F91FF90EF90DF90CF900895A5
:10023000089580E090E00895FC01538D448D252FB2
:1002400030E0842F90E0821B930B541710F0CF9670
:10025000089501970895FC01918D828D981761F0A2
:10026000828DDF01A80FB11D5D968C91928D9F5FED
:100270009F73928F90E008958FEF9FEF0895FC0198
:10028000918D828D981731F0828DE80FF11D858D4B
:1002900090E008958FEF9FEF0895FC01918D228DDE
:1002A000892F90E0805C9F4F821B91098F73992763
:1002B000089587E491E00E944D0121E0892B09F423
:1002C00020E0822F0895FC01848DDF01A80FB11D6D
:1002D000A35ABF4F2C91848D90E001968F7399277C
:1002E000848FA689B7892C93A089B1898C91806469
:1002F0008C93938D848D981306C00288F389E02D2A
:1003000080818F7D80830895EF92FF920F931F93DA
:10031000CF93DF93EC0181E0888F9B8D8C8D9813B8
:1003200005C0E889F989808185FD24C0F62E0B8DF2
:1003300010E00F5F1F4F0F731127E02E8C8DE81216
:100340000CC00FB607FCFACFE889F989808185FFD8
:10035000F5CFCE010E946301F1CF8B8DFE01E80F36
:10036000F11DE35AFF4FF0820B8FEA89FB898081F0
:10037000806207C0EE89FF896083E889F9898081FE
:100380008064808381E090E0DF91CF911F910F9195
:10039000FF90EF900895CF93DF93EC01888D882331
:1003A000C9F0EA89FB89808185FD05C0A889B989E2
:1003B0008C9186FD0FC00FB607FCF5CF808185FFBD
:1003C000F2CFA889B9898C9185FFEDCFCE010E942B
:1003D0006301E7CFDF91CF91089580E090E0892B12
:1003E00029F00E94590181110C94000008953FB733
:1003F000F8948091370190913801A0913901B09122
:100400003A0126B5A89B05C02F3F19F00196A11D02
:10041000B11D3FBFBA2FA92F982F8827820F911D9A
:10042000A11DB11DBC01CD0142E0660F771F881FE1
:10043000991F4A95D1F70895009769F0FC01019042
:100440000020E9F73197AF01481B590BBC0187E445
:1004500091E00C94ED0080E090E008958F929F92DF
:10046000AF92BF92CF92DF92EF92FF920F931F93C2
:10047000CF93DF93CDB7DEB7A1970FB6F894DEBF69
:100480000FBECDBF6C01990FEE08FF08F7FE31C01B
:10049000E0914701F09148010190F081E02D6DE27B
:1004A00087E491E009958C0122273327A9012C19B3
:1004B0003D094E095F0919A2CE0181967C019AE09F
:1004C000892E912CA12CB12CCA01B901A50194014E
:1004D0000E947204605DF70162937F01211531056E
:1004E0004105510589F7CF010E941C02800F911F21
:1004F0001DC0A701960119A28E010F5D1F4F8AE052
:10050000C82ED12CE12CF12CCA01B901A70196010A
:100510000E947204605DF80162938F01211531051C
:100520004105510589F7CF010E941C02A1960FB623
:10053000F894DEBF0FBECDBFDF91CF911F910F9119
:10054000FF90EF90DF90CF90BF90AF909F908F90F3
:1005500008950E949A041F920F920FB60F921124D1
:100560002F933F934F935F936F937F938F939F93BB
:10057000AF93BF93EF93FF9387E491E00E946301F1
:10058000FF91EF91BF91AF919F918F917F916F916B
:100590005F914F913F912F910F900FBE0F901F9041
:1005A00018951F920F920FB60F9211242F938F93CD
:1005B0009F93EF93FF93E0915701F0915801808151
:1005C000E0915D01F0915E0182FD12C09081809109
:1005D00060018F5F8F7320916101821751F0E0916C
:1005E0006001F0E0E95BFE4F958F8093600101C0F0
:1005F0008081FF91EF919F918F912F910F900FBE6E
:100600000F901F9018951F920F920FB60F92112402
:100610002F933F938F939F93AF93BF938091330119
:1006200090913401A0913501B091360130913201A1
:1006300023E0230F2D3720F40196A11DB11D05C025
:1006400026E8230F0296A11DB11D2093320180934D
:10065000330190933401A0933501B093360180911A
:10066000370190913801A0913901B0913A0101967A
:10067000A11DB11D8093370190933801A0933901DA
:10068000B0933A01BF91AF919F918F913F912F917C
:100690000F900FBE0F901F901895789484B58260CC
:1006A00084BD84B5816084BD85B5826085BD85B516
:1006B000816085BD80916E00816080936E00109294
:1006C000810080918100826080938100809181000F
:1006D00081608093810080918000816080938000A0
:1006E0008091B10084608093B1008091B0008160FE
:1006F0008093B00080917A00846080937A0080912A
:100700007A00826080937A0080917A008160809381
:100710007A0080917A00806880937A001092C100FC
:1007200084E00E94CE0089E00E94CE0085E00E9415
:10073000CE0086E00E94CE008AE00E94CE008AE0D1
:100740000E9487008DE00E94CE008DE00E9487000D
:10075000E0915701F091580182E08083E0915301CC
:10076000F09154011082E0915501F09156018FEC07
:10077000808310925F01E0915B01F0915C0186E063
:100780008083E0915901F0915A01808180618083DA
:10079000E0915901F0915A01808188608083E09155
:1007A0005901F0915A01808180688083E09159015C
:1007B000F0915A0180818F7D8083E2E1F1E0CBE30B
:1007C000D1E0DE01808132968E3008F08E50877045
:1007D000806480937C0080917A00806480937A00AA
:1007E00080917A0086FDFCCF80917800209179007D
:1007F00090E0922B8D939D9321E0EE31F20711F75B
:100800008EE191E00E941C02E12CF12CC7010E94B4
:100810002E028BE291E00E941C02899199910E9424
:100820002E028EE291E00E941C028FEFE81AF80A75
:1008300026E0E216F10451F70E94F7014B015C013A
:100840008AEFC82ED12CE12CF12C0E94F701DC019B
:10085000CB0188199909AA09BB09883E9340A105D3
:10086000B10558F081E0C81AD108E108F10828EE76
:10087000820E23E0921EA11CB11CC114D104E1041C
:10088000F10419F70E94ED0198CFE7E4F1E013823B
:10089000128288EE93E0A0E0B0E084839583A68383
:1008A000B78384E091E09183808385EC90E0958725
:1008B000848784EC90E09787868780EC90E0918B2A
:1008C000808B81EC90E0938B828B82EC90E0958B17
:1008D000848B86EC90E0978B868B118E128E138E14
:1008E000148E0895A1E21A2EAA1BBB1BFD010DC098
:1008F000AA1FBB1FEE1FFF1FA217B307E407F507D0
:1009000020F0A21BB30BE40BF50B661F771F881FAB
:10091000991F1A9469F760957095809590959B0141
:10092000AC01BD01CF010895EE0FFF1F0590F491BA
:10093000E02D099481E090E0F8940C949F04F894E1
:02094000FFCFE7
:10094200000000008401ED001C01CB014D012B01D0
:100952003F010E000F0010001100120013000A0DDB
:10096200204F44435A5954593A20002E3D0020202A
:02097200000083
:107E0000112484B714BE81FFF0D085E080938100F7
:107E100082E08093C00088E18093C10086E0809377
:107E2000C20080E18093C4008EE0C9D0259A86E02C
:107E300020E33CEF91E0309385002093840096BBD3
:107E4000B09BFECF1D9AA8958150A9F7CC24DD24C4
:107E500088248394B5E0AB2EA1E19A2EF3E0BF2EE7
:107E6000A2D0813461F49FD0082FAFD0023811F036
:107E7000013811F484E001C083E08DD089C08234E0
:107E800011F484E103C0853419F485E0A6D080C0E4
:107E9000853579F488D0E82EFF2485D0082F10E0AE
:107EA000102F00270E291F29000F111F8ED06801E7
:107EB0006FC0863521F484E090D080E0DECF843638
:107EC00009F040C070D06FD0082F6DD080E0C81688
:107ED00080E7D80618F4F601B7BEE895C0E0D1E017
:107EE00062D089930C17E1F7F0E0CF16F0E7DF06D8
:107EF00018F0F601B7BEE89568D007B600FCFDCFD4
:107F0000A601A0E0B1E02C9130E011968C91119780
:107F100090E0982F8827822B932B1296FA010C0160
:107F200087BEE89511244E5F5F4FF1E0A038BF0790
:107F300051F7F601A7BEE89507B600FCFDCF97BE46
:107F4000E89526C08437B1F42ED02DD0F82E2BD052
:107F50003CD0F601EF2C8F010F5F1F4F84911BD097
:107F6000EA94F801C1F70894C11CD11CFA94CF0C13
:107F7000D11C0EC0853739F428D08EE10CD085E9AC
:107F80000AD08FE07ACF813511F488E018D01DD067
:107F900080E101D065CF982F8091C00085FFFCCF94
:107FA0009093C60008958091C00087FFFCCF809118
:107FB000C00084FD01C0A8958091C6000895E0E648
:107FC000F0E098E1908380830895EDDF803219F02E
:107FD00088E0F5DFFFCF84E1DECF1F93182FE3DFCA
:107FE0001150E9F7F2DF1F91089580E0E8DFEE27F6
:047FF000FF270994CA
:027FFE00040479
:0400000300007E007B
:00000001FF
